:1000000002308A00982A00000A108A100A1182071A
:1000100028340C34013406340C00C8326C366F10AE
:10002000D737723664000C00D732EC31EF366510EA
:10003000D4370001CC214410CC34623961397900C5
:100040000C00C337753774103D102532000029307D
:1000500084008313000803193B280530F800F701DA
:10006000F70B3028F80B2F282E30F700F70B362827
:100070003928800B2D280800301840280812412804
:100080000816831608128312B018482888124928C7
:1000900088168316881283123019502808135128A5
:1000A0000817831608138312B01958288813592883
:1000B0008817831688130000831288158316881109
:1000C0000230F700F70B62280000831288118316B4
:1000D000881183120800B1018316081600308312BC
:1000E000081A0130B1048316881600308312881A6A
:1000F0000130F7000310F70D7708B10483160817D5
:1001000000308312081B0130F700F70DF70DFC30AB
:10011000F7057708B1048316881700308312881B0F
:100120000130F700F70DF70DF70DF830F7057708F8
:10013000B1043108F80008008316881108118810EE
:1001400083120811831608110816881608178817D5
:100150008312881483168810000083128815831672
:100160008811000083126B207808B0008811831674
:10017000881100008312881583168811BF28C028B3
:1001800083126B207808AF0088118316881108123B
:100190008812081388138312300EF700F030F70529
:1001A00077082F04F8007808AF00AF1FD92883160E
:1001B000A428AD08031DDE280811DF2808158316C2
:1001C0000811000083128810831688100000831223
:1001D00088118316881183122E0EAF000F30AF05E1
:1001E0002F08B0003C202E080F39AF00B0003C2093
:1001F0000800831608128812081388138811081142
:100200008810831208118316081183128810831630
:10021000881083128811831688110F308312A90069
:1002200027200130A2002208033C031C1F290330B1
:10023000B0003C200530A9002720A20A1329023073
:10024000B0003C200530A9002720A2012208033C71
:10025000031C332922080420A300AD012308AE00AB
:100260009C20A20A26298A110A12A62A2330840079
:100270008313000803194A290530F800F701F70B2A
:100280003F29F80B3E292E30F700F70B4529482966
:10029000800B3C2908002A0B4E2951294030AB0025
:1002A0005229AB0101302902AB072B088038AC0082
:1002B000AD012C08AE009C2008002808073A03195D
:1002C0006B290B3A03197029063A03197829023A67
:1002D00003197E2983290130A900AA004B2188290E
:1002E000AD010130AE009C200230A90027208829F2
:1002F0000130A9000230AA004B218829AD0110303D
:10030000AE009C2088290130AD002808AE009C205A
:1003100008000B08A2008B13831603178C170C140C
:100320000000000083120C087F390319D029031341
:10033000A30003170D080313A40003170F080313EA
:10034000A5002308A8005D21240803178D000313CE
:10035000250803178F0083168C170C14000000006B
:1003600083120C0D0E0D7F390319D0290313A3003E
:1003700003170D080313A40003170F080313A500A8
:100380002308A8005D21240803178D000313250806
:1003900003178F008D0A03198F0A03138C29031783
:1003A0000313A21B8B1708000B08A3008B138316E3
:1003B00003178C170C14000000000318062A831280
:1003C0000C087F390313A40003170D080313A500BD
:1003D00003170F080313A6002408A8005D212508B1
:1003E00003178D000313260803178F0083168C173D
:1003F0000C140000000083120313A20B002A032A2E
:1004000083160317062A252A8316031783120C0D59
:100410000E0D7F390313A40003170D080313A50065
:1004200003170F080313A6002408A8005D21250860
:1004300003178D000313260803178F008D0A031975
:100440008F0A03100313A20BD729A31B8B178A1142
:100450000A12F02A2908F80128020318322A28086B
:10046000F7003E2AF7010830AA00A80DF70D290869
:1004700077020318F700F80DAA0B352A0800203080
:10048000231E3030A4002208F700A21F4F2AF709CC
:10049000F70A7708A2002D30A400A317231422081E
:1004A000A8006430A9002A227708A200303078071B
:1004B000A5002208A8000A30A9002A2230307707B8
:1004C000A70030307807A6002408F7003030250256
:1004D00003196E2AA314A31B2315822A2408A5003E
:1004E0002030A4003030260203197A2A2314A31BDB
:1004F000A314822A031D2314031D822A2508A600A3
:100500002030A5002319892AA3188C2A23188F2AA2
:10051000922A2408A8005D212508A8005D2126084C
:10052000A8005D212708A8005D218A110A12F52A7A
:1005300003081F39830083161F149F141F159F1172
:1005400007309C0083138312A101F9286430A300B3
:1005500036210C3003178D0000308F0003138921E2
:100560000D3003178D0000308F00031389210830F0
:10057000A200FA30A3003621A20BB92A13300317C8
:100580008D0000308F0003138921143003178D0074
:1005900000308F00031389210130A9000230AA0026
:1005A0004B211A3003178D0000308F00031389216F
:1005B0000830A200FA30A3003621A20BDA2A20303C
:1005C00003178D0000308F0003138921213003179A
:1005D0008D0000308F00031008300313A200D429CF
:1005E0002108A2001830A3003F2A0830A200FA30E8
:0E05F000A3003621A20BF72AA10AA92A630054
:02400E00323F3F
:00000001FF
;PIC16F877A
;CRC=8211  CREATED="11-mai-19 10:29"
