:1000000002308A00952A00000A108A100A1182071D
:1000100028340C34013406345C330000C8326C36AA
:100020006F10D737723664005C330001D732EC3181
:10003000EF366510D4370001CC214410CC3462393E
:10004000613979005C330001C337753774103D1096
:1000500025320000293084008313000803193D284D
:100060000230F800F701F70B3328F80B32289730ED
:10007000F700F70B3928800B302808003018422889
:10008000081243280816831608128312B0184A284B
:1000900088124B288816831688128312301952282A
:1000A000081353280817831608138312B0195A2807
:1000B00088135B288817831688130000831288151D
:1000C0008316881163286428831288118316881187
:1000D00083120800B1018316081600308312081A33
:1000E0000130B1048316881600308312881A01305B
:1000F000F7000310F70D7708B104831608170030D6
:100100008312081B0130F700F70DF70DFC30F705DF
:100110007708B1048316881700308312881B0130DA
:10012000F700F70DF70DF70DF830F7057708B10474
:100130003108F8000800831688118810081183120E
:1001400088108316881008168816081788178312D7
:10015000081583160811000083128815831688116C
:10016000000083126A207808B00088118316881175
:1001700000008312881583168811BE2883126A2016
:100180007808AF00881183168811081288120813A6
:1001900088138312300EF700F030F70577082F042C
:1001A000F8007808AF00AF1FD7288316A328AD0842
:1001B000031DDC288810DD288814831688100000B1
:1001C0008312081183160811000083128811831608
:1001D000881183122E0EAF000F30AF052F08B0002C
:1001E0003E202E080F39AF00B0003E2008008316D5
:1001F00008128812081388138811881008118312B6
:100200008810831688108312081183160811831230
:100210008811831688110F308312A9002A2001301B
:10022000A2002208033C031C1D290330B0003E201D
:100230000530A9002A20A20A11290230B0003E2070
:100240000530A9002A20A2012208033C031C312901
:1002500022080420A300AD012308AE009B20A20ABF
:1002600024298A110A12A32A233084008313000848
:10027000031947290230F800F701F70B3D29F80B65
:100280003C299730F700F70B4329800B3A290800E7
:100290002A0B4B294E294030AB004F29AB010130CE
:1002A0002902AB072B088038AC00AD012C08AE004A
:1002B0009B2008002808073A031968290B3A0319FC
:1002C0006D29063A03197529023A03197B298029F9
:1002D0000130A900AA0048218529AD010130AE00F6
:1002E0009B200230A9002A2085290130A900023074
:1002F000AA0048218529AD011030AE009B20852938
:100300000130AD002808AE009B2008000B08A200B9
:100310008B13831603178C170C1400000000831234
:100320000C087F390319CD290313A30003170D0807
:100330000313A40003170F080313A5002308A80044
:100340005A21240803178D000313250803178F0073
:1003500083168C170C140000000083120C0D0E0D78
:100360007F390319CD290313A30003170D080313C5
:10037000A40003170F080313A5002308A8005A219F
:10038000240803178D000313250803178F008D0A17
:1003900003198F0A0313892903170313A21B8B1751
:1003A00008000B08A3008B13831603178C170C147B
:1003B000000000000318032A83120C087F3903137E
:1003C000A40003170D080313A50003170F08031358
:1003D000A6002408A8005A21250803178D0003133E
:1003E000260803178F0083168C170C1400000000DA
:1003F00083120313A20BFD29002A83160317032A75
:10040000222A8316031783120C0D0E0D7F39031356
:10041000A40003170D080313A50003170F08031307
:10042000A6002408A8005A21250803178D000313ED
:10043000260803178F008D0A03198F0A0310031370
:10044000A20BD429A31B8B178A110A12ED2A2908A3
:10045000F801280203182F2A2808F7003B2AF70181
:100460000830AA00A80DF70D290877020318F70035
:10047000F80DAA0B322A08002030231E3030A400C9
:100480002208F700A21F4C2AF709F70A7708A200F2
:100490002D30A400A31723142208A8006430A9005B
:1004A00027227708A20030307807A5002208A8008C
:1004B0000A30A900272230307707A70030307807AC
:1004C000A6002408F7003030250203196B2AA31474
:1004D000A31B23157F2A2408A5002030A400303058
:1004E00026020319772A2314A31BA3147F2A031DB2
:1004F0002314031D7F2A2508A6002030A5002319F8
:10050000862AA318892A23188C2A8F2A2408A8004F
:100510005A212508A8005A212608A8005A21270890
:10052000A8005A218A110A12F22A03081F398300EF
:1005300083161F149F141F159F1107309C008313EF
:100540008312A101F7286430A30034210C30031773
:100550008D0000308F00031386210E3003178D00AD
:1005600000308F00031386210830A200FA30A30068
:100570003421A20BB62A143003178D0000308F00EF
:1005800003138621163003178D0000308F000313EC
:1005900086210130A9000230AA0048211C3003172F
:1005A0008D0000308F00031386210830A200FA303E
:1005B000A3003421A20BD72A223003178D0000306C
:1005C0008F0003138621243003178D0000308F0025
:1005D000031008300313A200D1292108A20018300B
:1005E000A3003C2A0830A200FA30A3003421A20B59
:0805F000F42AA10AA62A630007
:02400E00323F3F
:00000001FF
;PIC16F877A
;CRC=9072  CREATED="17-févr.-19 15:53"
